:100000000C94F2000C940F010C940F010C940F014E
:100010000C940F010C940F010C940F010C940F0120
:100020000C940F010C940F010C940F010C940F0110
:100030000C940F010C940F010C940F010C940F0100
:100040000C940F010C940F010C940F010C940F01F0
:100050000C940F010C940F010C940F010C940F01E0
:100060000C940F010C940F0107634236B79BD8A77D
:100070001A39685618AEBAAB558C1D3CB7CC5763CD
:10008000BD6DEDFD753EF6177231BF000000803F7B
:1000900008000000BE922449123EABAAAA2ABECD97
:1000A000CCCC4C3E00000080BEABAAAAAA3E000009
:1000B0000000BF000000803F000000000008417801
:1000C000D3BB4387D1133D190E3CC3BD4282AD2B38
:1000D0003E68EC8276BED98FE1A93E4C80EFFFBE30
:1000E00001C4FF7F3F000000000000407A10F35A77
:1000F00000A0724E18090010A5D4E80000E8764868
:10010000170000E40B54020000CA9A3B000000E113
:10011000F505000080969800000040420F000000A6
:10012000A08601000000102700000000E803000086
:1001300000006400000000000A0000000000010050
:10014000000000002C76D888DC674F0823DFC1DF71
:10015000AE59E1B1B796E5E3E453C63AE651997674
:1001600096E8E6C28426EB898C9B62ED407C6FFCAE
:10017000EFBC9C9F40F2BAA56FA5F490055A2AF7F0
:100180005C936B6CF9676DC11BFCE0E40D47FEF5F9
:1001900020E6B500D0ED902E030094357705008061
:1001A000841E080000204E0A000000C80C333333C0
:1001B000330F986E12831141EF8D2114893BE65560
:1001C00016CFFEE6DB18D1844B381BF77C1D901D43
:1001D000A4BBE424203284725E228100C9F124ECA5
:1001E000A1E53D2711241FBECFEFD8E0DEBFCDBF74
:1001F00011E0A0E0B1E0ECEBF0E202C005900D925E
:10020000A231B107D9F721E0A2E1B1E001C01D920E
:10021000A631B207E1F70E94C3040C945C100C9461
:100220000000CF92DF92EF92FF920F931F93CF9334
:10023000DF937C0186E190E00E941F0AF701918321
:100240008083C0E0D0E00F2EFAEACF2EF02D8EEEA4
:100250000E947C048C2D0E94A4040E949A048FEEBC
:100260000E947C04F701008111810C0F1D1F81E0A9
:100270000E94B404D82E80E00E94B4042D2D30E0FA
:10028000322F2227280F311DF801318320830E944D
:100290009A0483ED90E30197F1F700C00000C39446
:1002A000C3942296C631D10591F69FE5EAEEF0E0BF
:1002B0009150E040F040E1F700C0000088E1DF919C
:1002C000CF911F910F91FF90EF90DF90CF90089505
:1002D0002F923F924F925F926F927F928F929F9256
:1002E000AF92BF92CF92DF92EF92FF920F931F9344
:1002F000CF93DF93CDB7DEB765970FB6F894DEBF27
:100300000FBECDBF1C018EEE0E947C0484EF0E94C4
:10031000A4048EE20E94A4040E949A0487EA91E653
:100320000197F1F700C000008EEE0E947C0486EF7A
:100330000E94A4040E949A048FEE0E947C0481E033
:100340000E94B404F82E80E00E94B404E82E0E94BB
:100350009A048EEE0E947C0484EF0E94A40484E739
:100360000E94A4040E949A04A7EAB1E61197F1F74B
:1003700000C000008EEE0E947C0486EF0E94A40460
:100380000E949A048FEE0E947C0481E00E94B404D3
:1003900081E00E94B404898380E00E94B4048D8BC4
:1003A0000E949A04F101008111816F2D70E0762F77
:1003B00066276E0D711D072E000C880B990B0E948D
:1003C0008E066B017C01D8011A966D917C911B976A
:1003D00080E090E00E948C069B01AC01C701B60151
:1003E0000E9435056B017C01F8016085718580E014
:1003F00090E00E948C069B01AC01C701B6010E94EF
:10040000680720E030E040E058E30E9468076B0195
:100410007C01D80152966D917C91539780E090E0D9
:100420000E948C0620E030E040E055E40E9468071E
:100430004B015C01F8016489758980E090E00E94BD
:100440008C06A70196010E9436059B01AC01C501EF
:10045000B4010E94A205A70196010E9436056B0116
:100460007C0120E030E040E051E40E94360520E0CD
:1004700030E040E85DE30E94680720E030E040E2C1
:1004800051E40E94A20569877A878B879C8726E6BC
:1004900036E646EE5FE30E94680720E030E040E089
:1004A00052E40E9436056D877E878F87988B20E007
:1004B00030E04AE755E4C701B6010E9435056B01FB
:1004C0007C010E9450069B01AC010E945A090E94C7
:1004D0008E064B015C01D8011C966D917C911D9795
:1004E00080E090E00E948C062B013C0120E030E08F
:1004F00040E05AE3C501B4010E9468079B01AC01CA
:10050000C301B2010E94680720E030E040E857E3F1
:100510000E9468072B013C01F8016481758180E02D
:1005200090E00E948C06A70196010E94680720E0D7
:1005300030E040E059E30E9468079B01AC01C30131
:10054000B2010E94360520E030E040E050E40E9415
:10055000360520E030E040E85EE30E94680720E0D6
:1005600030E040E057E40E9436052B013C01D80101
:1005700016966D917C91179780E090E00E948C0612
:100580009B01AC01C301B2010E94680720E030E08A
:1005900040E058E30E946807698B7A8B8B8B9C8BB9
:1005A000B9818B2F90E0982F8827FC012D89E20FCD
:1005B000F11DFA83E983FF2324F4E158FF4FFA8306
:1005C000E98349815A81440F452F441F550B2A0165
:1005D000550F66087708A301920160E070E0CB0137
:1005E00049823A834B835C836D837E838F839887B4
:1005F000D8011E966D917C911F9780E090E00E943B
:100600008C062B013C0120E030E040E859E3C501B5
:10061000B4010E9468079B01AC01C301B2010E94B2
:10062000680720E030E040E05AE30E9468074B0191
:100630005C01F8016281738180E090E00E948C0689
:10064000A70196010E94680720E030E040E05AE3ED
:100650000E9468079B01AC01C501B4010E943605E8
:100660006B017C01D8016D917C91660F771F660F3D
:10067000771F80E090E00E948C069B01AC01C701CF
:10068000B6010E9436059B01AC010E94360520E0B0
:1006900030E040E050E40E94360520E030E040E8E1
:1006A0005EE30E9468070E941906A22EB32EC42E94
:1006B000D52EE62EF72E082F192F29813A814B814E
:1006C0005C8160E070E080E090E00E94E7090F2E1E
:1006D000F8EAAF2EF02D0F2EF1E6BF2EF02DC12C33
:1006E000D12CE12CF12C00E010E00E9475092F3F85
:1006F000EFEF3E074E07EFE75E07610571058105E5
:10070000910509F074F401E00E94CE090E9486066A
:1007100029893A894B895C890E94A2056B017C0179
:100720000EC00E94860629893A894B895C890E94FD
:10073000A2059B01AC010E9436056B017C0120E003
:1007400030E040E85BE3C701B6010E9468079B0107
:10075000AC010E94680720E030EE4DE355E40E94B2
:1007600068072B013C0120E038EE45EE55ECC7014F
:10077000B6010E94680720E030E040E857E30E949D
:1007800068074B015C0120E030E040E857E3C3011B
:10079000B2010E9468079B01AC01C501B4010E942F
:1007A000360520E030EF4CE655E40E94360520E0A7
:1007B00030E040E85DE30E946807A70196010E94CF
:1007C000360520E030E048EC52E40E94A2056B01BF
:1007D0007C0120E030E54DE754E40E94A20521E0D1
:1007E0003EED42E45EE30E94D5079B01AC016985C2
:1007F0007A858B859C85D10112966D937D938D931F
:100800009C9315976D857E858F85988916966D9337
:100810007D938D939C931997F101C286D386E486CC
:10082000F58660E070E080E89FE30E94350520E0F7
:100830003AE24DE257E40E946807D1011E966D939B
:100840007D938D939C93519789E165960FB6F894AB
:10085000DEBF0FBECDBFDF91CF911F910F91FF90F3
:10086000EF90DF90CF90BF90AF909F908F907F9050
:100870006F905F904F903F902F90089587EA91E698
:100880000197F1F700C0000080ED0E947C0489E12F
:100890000E94A40487E00E94A4040E949A0480EDB0
:1008A0000E947C048BE60E94A40481E00E94A404C0
:1008B0000E949A0480ED0E947C048AE10E94A404B4
:1008C00080E00E94A4040E949A0480ED0E947C04AF
:1008D0008BE10E94A40488E10E94A4040E949A046F
:1008E00080ED0E947C0488E30E94A40481E00E94C1
:1008F000A4040E949A04089594EA9093BC00ECEB3F
:10090000F0E090819923ECF79091B90090FD10C030
:100910008093BB0084E88093BC00ECEBF0E0808126
:100920008823ECF7E9EBF0E08081808189E108958C
:100930008AE2089584E98093BC00ECEBF0E08081CA
:1009400084FDFDCF8AE108958093BB0084E8809305
:10095000BC00ECEBF0E080818823ECF7E9EBF0E001
:10096000808180818BE1089520E4829FC001112461
:1009700084688093BC00ECEBF0E080818823ECF786
:100980008091BB000895CF93DF93CDB7DEB7E0979A
:100990000FB6F894DEBF0FBECDBF0E9407050E94C0
:1009A0003E04CE0101960E9411016E0187E2C80E3D
:1009B000D11C0F2EF8EF9F2EF02D0F2EF6E0AF2E4C
:1009C000F1E0BF2EF02D7E0193E1E90EF11CCE0186
:1009D00001960E9468016B817C818D819E818601D8
:1009E00022E043E00E94FF091F929F92DF92CF9284
:1009F000BF92AF92FF92EF920E94400BC7010E94FC
:100A000017050FB6F894DEBF0FBECDBFE0CF109232
:100A1000C50087E68093C400E2ECF0E08081866048
:100A20008083E1ECF0E08081886980830895CF9332
:100A3000DF93FC012081222369F0DC011196E0ECB8
:100A4000F0E0C6ECD0E0908195FFFDCF28832D919A
:100A50002111F9CFE0ECF0E0808185FFFDCF10920D
:100A6000C6008BE2DF91CF9108955058BB27AA278B
:100A70000E944D050C942E070E94200738F00E941A
:100A8000270720F039F49F3F19F426F40C940D0742
:100A90000EF4E095E7FB0C940707E92F0E943F074F
:100AA00058F3BA17620773078407950720F079F4A3
:100AB000A6F50C9461070EF4E0950B2EBA2FA02D2D
:100AC0000B01B90190010C01CA01A0011124FF27FB
:100AD000591B99F0593F50F4503E68F11A16F040F6
:100AE000A22F232F342F4427585FF3CF46953795F5
:100AF0002795A795F0405395C9F77EF41F16BA0BBA
:100B0000620B730B840BBAF09150A1F0FF0FBB1F67
:100B1000661F771F881FC2F70EC0BA0F621F731FB0
:100B2000841F48F4879577956795B795F7959E3F0D
:100B300008F0B0CF9395880F08F09927EE0F97959E
:100B4000879508950E94B6050C942E070E942707EA
:100B500058F00E94200740F029F45F3F29F00C94E0
:100B6000070751110C9462070C940D070E943F0770
:100B700068F39923B1F3552391F3951B550BBB27CC
:100B8000AA2762177307840738F09F5F5F4F220F11
:100B9000331F441FAA1FA9F335D00E2E3AF0E0E808
:100BA00032D091505040E695001CCAF72BD0FE2F52
:100BB00029D0660F771F881FBB1F261737074807E6
:100BC000AB07B0E809F0BB0B802DBF01FF2793589E
:100BD0005F4F3AF09E3F510578F00C9407070C9454
:100BE00062075F3FE4F3983ED4F386957795679567
:100BF000B795F7959F5FC9F7880F911D96958795D3
:100C000097F90895E1E0660F771F881FBB1F6217F1
:100C100073078407BA0720F0621B730B840BBA0BAF
:100C2000EE1F88F7E0950895BEE304D008F490E83D
:100C30000895BFE322273327A9010E94470760F1E7
:100C40009F5748F1B91740F1BFE3B91B9927B85036
:100C50003AF4660F771F881F991FB395D2F316C019
:100C6000B8504AF0232F342F452F562F672F782F57
:100C70008827B850BAF7B85F49F086957795679599
:100C80005795479537952795BA95B9F716F40E9469
:100C9000100788940895889460E070E0CB0108956F
:100CA0000E9457066894B1110C94620708950E943F
:100CB000470788F09F5798F0B92F9927B751B0F0A0
:100CC000E1F0660F771F881F991F1AF0BA95C9F7D0
:100CD00014C0B13091F00E946107B1E008950C9406
:100CE0006107672F782F8827B85F39F0B93FCCF3B9
:100CF000869577956795B395D9F73EF4909580954D
:100D0000709561957F4F8F4F9F4F089597FB16F415
:100D10000E9410070C94CA06E89409C097FB3EF4A1
:100D200090958095709561957F4F8F4F9F4F992338
:100D3000A9F0F92F96E9BB279395F69587957795B6
:100D40006795B795F111F8CFFAF4BB0F11F460FF76
:100D50001BC06F5F7F4F8F4F9F4F16C0882311F0CE
:100D600096E911C0772321F09EE8872F762F05C0E2
:100D7000662371F096E8862F70E060E02AF09A957D
:100D8000660F771F881FDAF7880F9695879597F972
:100D90000895E894F92F96EBFF2381F012161306BD
:100DA0001406440B9395F695879577956795579517
:100DB0004040FF23B9F71BC099270895882351F4B9
:100DC0009850D2F7872B762F652F542F432F322F31
:100DD00020E0B1F3121613061406440B88233AF0F0
:100DE0009A95440F551F661F771F881FCAF7552312
:100DF0004AF4440F551F11F460FF04C06F5F7F4F2A
:100E00008F4F9F4F880F9695879597F9089597F97B
:100E10009F6780E870E060E008959FEF80EC0895A0
:100E20009095809570956095509540953095219559
:100E30003F4F4F4F5F4F6F4F7F4F8F4F9F4F0895E3
:100E400000240A94161617061806090608950024A9
:100E50000A9412161306140605060895092E039423
:100E6000000C11F4882352F0BB0F40F4BF2B11F497
:100E700060FF04C06F5F7F4F8F4F9F4F089557FDF6
:100E80009058440F551F59F05F3F71F04795880FF8
:100E900097FB991F61F09F3F79F08795089512168F
:100EA00013061406551FF2CF4695F1DF08C016163B
:100EB00017061806991FF1CF8695710561050894EC
:100EC0000895E894BB2766277727CB0197F9089503
:100ED0000E947B070C942E070E94200738F00E9486
:100EE000270720F0952311F00C9407070C940D07A9
:100EF00011240C9462070E943F0770F3959FC1F381
:100F0000950F50E0551F629FF001729FBB27F00DB7
:100F1000B11D639FAA27F00DB11DAA1F649F66270C
:100F2000B00DA11D661F829F2227B00DA11D621F5B
:100F3000739FB00DA11D621F839FA00D611D221F15
:100F4000749F3327A00D611D231F849F600D211DF9
:100F5000822F762F6A2F11249F5750409AF0F1F07C
:100F600088234AF0EE0FFF1FBB1F661F771F881FE5
:100F700091505040A9F79E3F510580F00C9407070F
:100F80000C9462075F3FE4F3983ED4F3869577951F
:100F90006795B795F795E7959F5FC1F7FE2B880F8B
:100FA000911D9695879597F90895FA01EE0FFF1F09
:100FB000309621053105A1F16115710561F4803884
:100FC000BFE39B0749F168949038810561F0803850
:100FD000BFEF9B0741F099234AF5FF3FE10531053B
:100FE000210519F1E8940894E795D901AA2329F479
:100FF000AB2FBE2FF85FD0F310C0FF5F70F4A69543
:10100000E0F7F73950F019F0FF3A38F49F779F93E3
:101010000DD00F9007FC9058089546F00C940D07E2
:1010200060E070E080E89FE308954FE79F775F936B
:101030004F933F932F930E94D0082F913F914F9150
:101040005F910E9468070C942D0829F416F00C9407
:1010500007070C9461070C940D070E944707A8F33B
:101060009638A0F707F80F92E8942BE33AEA48EB9A
:101070005FE70E947E070F920F920F924DB75EB707
:101080000F920E941809E8E6F0E00E945F084F9175
:101090005F91EF91FF91E595EE1FFF1F49F0FE571D
:1010A000E0684427EE0F441FFA95E1F74195550B90
:1010B0000E9492080F9007FE0C9486080895DF9313
:1010C000CF931F930F93FF92EF92DF927B018C01DE
:1010D000689406C0DA2EEF010E947B07FE01E894B7
:1010E000A5912591359145915591A6F3EF010E9467
:1010F0004D05FE019701A801DA9469F7DF90EF90A2
:10110000FF900F911F91CF91DF9108959B01AC014A
:1011100060E070E080E89FE30C94A2050C94070760
:101120000C944C090E944707D8F39923C9F3940FF4
:10113000511DA3F39150504094F059F0882332F0A0
:10114000660F771F881F91505040C1F79E3F510591
:101150002CF7880F911D9695879597F908955F3F15
:10116000ACF0983E9CF0BB27869577956795B79530
:1011700008F4B1609395C1F7BB0F58F711F460FF05
:10118000E8CF6F5F7F4F8F4F9F4FE3CF0C94620785
:1011900016F00C944C090C940D0768940C940707F6
:1011A0000E944707A8F39923C1F3AEF3DF93CF93CF
:1011B0001F930F93FF92C92FDD2788232AF02197D1
:1011C000660F771F881FDAF720E030E040E85FEB1A
:1011D0009FE3883920F0803E38F021968F770E9477
:1011E0003605E0E9F0E004C00E943605EDEBF0E0E2
:1011F0000E945F088B01BE01EC01FB2E6F57710945
:101200007595771F880B990B0E948E0628E132E7AF
:1012100041E35FE30E947B07AF2D9801AE01FF9091
:101220000F911F91CF91DF910E944D050C942E07D5
:10123000FA01DC01AA0FBB1F9B01AC01BF5728F4C8
:10124000222733274427507820C0B75190F4AB2F82
:101250000024469537952795011CA395D2F30020CD
:1012600071F0220F331F441FB395DAF30ED00C94A4
:10127000350561307105A0E88A07B94630F49B0155
:10128000AC016627772788279078309621F0208355
:1012900031834283538308959F3F31F0915020F46E
:1012A000879577956795B795880F911D9695879542
:1012B00097F90895DB018F939F930E946A09BF916C
:1012C000AF91A29F800D911DA39F900DB29F900D95
:1012D000112408950E94F009A59F900DB49F900DD0
:1012E000A49F800D911D11240895DF93CF931F9328
:1012F0000F939A9DF02D219FF00D8B9DF00D8A9DEF
:10130000E02DF10D039FF00D029FE00DF11D4E9DAC
:10131000E00DF11D5E9DF00D4F9DF00D7F936F93DD
:10132000BF92AF925F934F93D5010E94F0098B015A
:10133000AC01D7010E94F009EB01E80FF91FD601BB
:101340000E94C5092F913F91D6010E94F009C60F56
:10135000D71FE81FF91FAF91BF910E94C5092F91B8
:101360003F910E94F009C60FD71FE81FF91FD60151
:101370000E94F009E60FF71F9801BE01CF0111246A
:101380000F911F91CF91DF9108950E94F009460FB0
:10139000571FC81FD91F08F4319608950F930830BE
:1013A00090F0982F872F762F652F542F432F322FB1
:1013B00022270850F4CF220F331F441F551F661FEA
:1013C000771F881F991F0A95B2F70F9108952A1960
:1013D0003B094C095D096E097F09800B910B08954B
:1013E000A29FB001B39FC001A39F700D811D112466
:1013F000911DB29F700D811D1124911D0895EF92D2
:101400000F931F93CF93DF93E80147FD02C034E0B1
:1014100001C034E1042E000C550B57FF03C0519559
:1014200041955109E32E022F242FAE010E94430D56
:10143000CE01DF91CF911F910F91EF9008950F93FF
:101440001F93CF93DF938230910510F482E090E0F8
:10145000E0911401F091150120E030E0A0E0B0E04F
:10146000309719F140815181028113814817590742
:10147000C8F08417950769F4109731F012960C9311
:10148000129713961C9327C0009314011093150113
:1014900022C02115310519F04217530718F49A019B
:1014A000BD01EF01DF01F801DBCF21153105F9F0B6
:1014B000281B390B2430310580F48A819B8161150A
:1014C000710521F0FB019383828304C09093150181
:1014D00080931401FE01329644C0FE01E20FF31F17
:1014E0008193919322503109398328833AC0209106
:1014F000120130911301232B41F42091020130910C
:1015000003013093130120931201209100013091C7
:1015100001012115310541F42DB73EB74091040179
:1015200050910501241B350BE0911201F09113013C
:10153000E217F307A0F42E1B3F0B2817390778F0AA
:10154000AC014E5F5F4F2417350748F04E0F5F1F09
:1015500050931301409312018193919302C0E0E0F4
:10156000F0E0CF01DF91CF911F910F910895CF93BC
:10157000DF93009709F481C0FC0132971382128235
:10158000A0911401B0911501109781F4208131814F
:10159000820F931F209112013091130128173907F0
:1015A00051F5F0931301E093120167C0ED0120E0C3
:1015B00030E0CE17DF0740F44A815B819E01411580
:1015C0005105F1F0EA01F5CFD383C2834081518107
:1015D000840F951FC817D90759F488819981840F02
:1015E000951F0296918380838A819B819383828356
:1015F0002115310529F4F0931501E09314013DC044
:10160000E901FB83EA8349915991C40FD51FEC1777
:10161000FD0761F480819181840F951F0296E90195
:1016200099838883828193819B838A83E0E0F0E0C1
:1016300012968D919C911397009719F0FD01DC0192
:10164000F7CF8D919C9111979D012E5F3F4F820F97
:10165000931F20911201309113012817390769F463
:10166000309729F4109215011092140102C01382D0
:101670001282B0931301A0931201DF91CF910895CC
:10168000AEE0B0E0E6E4FBE00C9433100D891E8977
:1016900086E08C831A8309838FEF9FE79E838D8377
:1016A000AE01475E5F4F6F89788DCE0101960E9433
:1016B000620BEF81F885E00FF11F10822E96E4E0B7
:1016C0000C944F10ABE0B0E0E8E6FBE00C94251082
:1016D0006C017B018A01FC0117821682838181FFE4
:1016E000CCC1CE0101963C01F6019381F70193FD37
:1016F000859193FF81917F01882309F4BAC18532D6
:1017000039F493FD859193FF81917F01853229F40E
:10171000B60190E00E948B0FE7CF912C212C312C49
:10172000FFE1F315D8F08B3279F038F4803279F09C
:101730008332A1F4232D20611DC08D3261F08033EE
:1017400069F4232D216016C0832D8260382EE32D8D
:10175000E4603E2E2AC0F32DF8601DC037FC2DC07A
:1017600020ED280F2A3040F08E32B9F436FC81C1CA
:10177000232D2064322E19C036FE06C08AE0989EC2
:10178000200D1124922E11C0EAE02E9E200D11246E
:10179000222EF32DF0623F2E08C08C3621F4832DCB
:1017A0008068382E02C0883641F4F70193FD859198
:1017B00093FF81917F018111B3CF982F9F7D955425
:1017C000933028F40C5F1F4F9FE399830DC083363D
:1017D00031F0833771F0833509F059C021C0F80129
:1017E000808189830E5F1F4F88248394912C53013D
:1017F00013C02801F2E04F0E511CF801A080B18007
:1018000036FE03C0692D70E002C06FEF7FEFC501A7
:101810000E94800F4C018201F32DFF773F2E16C0EE
:10182000280122E0420E511CF801A080B18036FE52
:1018300003C0692D70E002C06FEF7FEFC5010E9409
:10184000750F4C01F32DF0683F2E820133FC1BC055
:10185000822D90E088169906B0F4B60180E290E0FF
:101860000E948B0F2A94F4CFF50137FC859137FE47
:1018700081915F01B60190E00E948B0F21102A94A4
:1018800021E0821A91088114910471F7E8C084362E
:1018900011F0893641F5F80137FE07C0608171818A
:1018A000828193810C5F1F4F08C060817181072E78
:1018B000000C880B990B0E5F1F4FF32DFF763F2E08
:1018C00097FF09C090958095709561957F4F8F4FD8
:1018D0009F4FF0683F2E2AE030E0A3010E94C70F1F
:1018E000882E861845C0853731F4232D2F7EB22EE1
:1018F0002AE030E025C0932D997FB92E8F36C1F0B4
:1019000018F4883579F0B5C0803719F0883721F0A0
:10191000B0C0E92FE061BE2EB4FE0DC0FB2DF46017
:10192000BF2E09C034FE0AC0292F2660B22E06C081
:1019300028E030E005C020E130E002C020E132E0E4
:10194000F801B7FE07C060817181828193810C5FCD
:101950001F4F06C06081718180E090E00E5F1F4FD5
:10196000A3010E94C70F882E8618FB2DFF773F2EFC
:1019700036FE0DC0232D2E7FA22E891458F434FE7E
:101980000BC032FC09C0832D8E7EA82E05C0B82C5A
:10199000A32C03C0B82C01C0B92CA4FE0FC0FE01BB
:1019A000E80DF11D8081803321F49A2D997EA92EB6
:1019B00009C0A2FE06C0B394B39404C08A2D8678F1
:1019C00009F0B394A3FC11C0A0FE06C0B21488F4C1
:1019D000280C922C9B180EC0B21460F4B60180E261
:1019E00090E00E948B0FB394F7CFB21418F42B1829
:1019F00002C0982C212CA4FE10C0B60180E390E018
:101A00000E948B0FA2FE17C0A1FC03C088E790E0E4
:101A100002C088E590E0B6010CC08A2D867859F0A6
:101A2000A1FE02C08BE201C080E2A7FC8DE2B601FC
:101A300090E00E948B0F891438F4B60180E390E0A7
:101A40000E948B0F9A94F7CF8A94F301E80DF11D51
:101A50008081B60190E00E948B0F8110F5CF22208B
:101A600009F442CEB60180E290E00E948B0F2A94E6
:101A7000F6CFF6018681978102C08FEF9FEF2B96FC
:101A8000E2E10C944110A9E0B0E0E9E4FDE00C943F
:101A90002B106A01122FB02E2BE3201720F0FF2409
:101AA000F394F00E02C02CE3F22E0F2D27E0AE01CE
:101AB0004F5F5F4F0E949D0EBC014981842F89704A
:101AC000813031F0E1FC06C0E0FE06C090E205C0C6
:101AD0009DE203C09BE201C090E05E2D507143FF88
:101AE0003CC0911102C083E001C084E0811718F46A
:101AF000212F281B01C020E051110BC0F601822FBD
:101B000030E2882319F031938150FBCFC20ED11CF3
:101B100020E0992329F0D6019C93F60131966F01BC
:101B2000C6010396E2FE0AC03EE4D6013C9341E4BE
:101B300011964C93119712963C9306C03EE6F6011F
:101B4000308341E641833283FC01322F40E233236C
:101B500009F442C041933150FACF42FF44C0911181
:101B600002C083E001C084E0811718F4212F281BF4
:101B700001C020E051110BC0F601822F30E2882312
:101B800019F031938150FBCFC20ED11C20E0992374
:101B900029F0D6019C93F60131966F01C601039698
:101BA000E2FE0BC039E4D6013C933EE411963C932F
:101BB000119736E412963C9307C039E6F60130835C
:101BC0003EE6318336E63283FC01322F40E2332396
:101BD00019F041933150FBCFFC01E20FF11D10824F
:101BE0008EEF9FEFA6C021E030E0911102C020E00F
:101BF00030E0161617061CF4FB01319602C0E1E036
:101C0000F0E02E0F3F1FBB2021F0EB2DF0E03196CE
:101C100002C0E0E0F0E02E0F3F1FE12FF0E02E17B2
:101C20003F071CF4121B212F01C020E08E2D88716C
:101C300059F4F601822F30E2882319F03193815054
:101C4000FBCFC20ED11C20E0992329F0D6019C9332
:101C5000F60131966F0151110BC0F601822F90E30E
:101C6000882319F091938150FBCFC20ED11C20E044
:101C70000F2D060F9A81342F307144FF03C091332A
:101C800009F40150101624F4093018F008E001C0DE
:101C900001E0AB0177FF02C040E050E0FB01E41B34
:101CA000F50BA1E0B0E0AC0FBD1FEA0FFB1F8EE209
:101CB000A82E4B01801A91080B2D10E0119501956B
:101CC00011094F3FBFEF5B0721F4D601AC9211968B
:101CD0006D01641775072CF08416950614F4818144
:101CE00001C080E3415051093196D60111967D0122
:101CF0004017510724F0D6018C936701E2CF641797
:101D0000750739F4963320F4953319F4311101C075
:101D100081E3F6018083F701822F90E2882319F096
:101D200091938150FBCFF701E20FF11D108280E00B
:101D300090E02996ECE00C944710283008F027E05A
:101D40003327DA01990F311D87FD916000966105F7
:101D5000710539F432602E5F3D9330E32A95E1F747
:101D600008959F3F30F080387105610509F03C5FB0
:101D70003C5F3D93913008F08068911DDF93CF93D5
:101D80001F930F93FF92EF92192F987F9695E92F4B
:101D900096959695E90FFF27EC5BFE4F9927332721
:101DA000EE24FF24A701E70105900894079428F486
:101DB000360FE71EF81E491F511D660F771F881F3B
:101DC000991F0694A1F70590079428F4E70EF81ED2
:101DD000491F561FC11D770F881F991F661F069444
:101DE000A1F70590079428F4F80E491F561FC71F46
:101DF000D11D880F991F661F771F0694A1F70590C4
:101E0000079420F4490F561FC71FD81F990F661F4C
:101E1000771F881F0694A9F784911095177041F0D9
:101E2000D695C79557954795F794E7941A95C1F7B6
:101E3000EAEEF0E0689415901591359165919591D1
:101E400005907FE27395E118F10A430B560BC90B1D
:101E5000D009C0F7E10CF11E431F561FC91FD01D4A
:101E60007EF4703311F48A95E6CFE894015030F097
:101E7000080F0AF40027021708F4202F2395022FD9
:101E80007A3328F079E37D932A95E9F710C07D93A2
:101E90002A9589F60694979567953795179517941F
:101EA000E118F10A430B560BC90BD00998F02395A2
:101EB0007E9173957A3308F070E37C932013B8F722
:101EC0007E9170617D9330F0839571E37D9370E333
:101ED0002A95E1F71124EF90FF900F911F91CF9178
:101EE000DF91992787FD90950895FC010590615039
:101EF00070400110D8F7809590958E0F9F1F089520
:101F0000FC016150704001900110D8F780959095C8
:101F10008E0F9F1F08950F931F93CF93DF93FB01A5
:101F2000238121FD03C08FEF9FEF2CC022FF16C03D
:101F300046815781248135814217530744F4A0819B
:101F4000B1819D012F5F3F4F318320838C93268188
:101F500037812F5F3F4F3783268314C08B01EC01FD
:101F6000FB010084F185E02D0995892BE1F6D8016C
:101F700016968D919C911797019617969C938E9328
:101F80001697CE01DF91CF911F910F910895FA011D
:101F9000AA27283051F1203181F1E8946F936E7FA8
:101FA0006E5F7F4F8F4F9F4FAF4FB1E03ED0B4E099
:101FB0003CD0670F781F891F9A1FA11D680F791FDA
:101FC0008A1F911DA11D6A0F711D811D911DA11DEB
:101FD00020D009F468943F912AE0269F11243019FB
:101FE000305D3193DEF6CF010895462F4770405D96
:101FF0004193B3E00FD0C9F7F6CF462F4F70405D45
:102000004A3318F0495D31FD4052419302D0A9F79F
:10201000EACFB4E0A6959795879577956795BA9599
:10202000C9F700976105710508959B01AC010A2E5F
:1020300006945795479537952795BA95C9F7620F36
:10204000731F841F951FA01D08952F923F924F92DA
:102050005F926F927F928F929F92AF92BF92CF9238
:10206000DF92EF92FF920F931F93CF93DF93CDB741
:10207000DEB7CA1BDB0B0FB6F894DEBF0FBECDBFB9
:1020800009942A88398848885F846E847D848C848A
:102090009B84AA84B984C884DF80EE80FD800C8193
:1020A0001B81AA81B981CE0FD11D0FB6F894DEBF76
:0C20B0000FBECDBFED010895F894FFCFE6
:1020BC000000160120002054203D20257325634389
:0220CC00000012
:00000001FF
