:100000000C9401010C9416010C9416010C94160129
:100010000C9416010C9416010C9416010C94160104
:100020000C9416010C9416010C9416010C941601F4
:100030000C9416010C9416010C9416010C941601E4
:100040000C9416010C9416010C9416010C941601D4
:100050000C9416010C9416010C9416010C941601C4
:100060000C9416010C9416014101520163017401B4
:1000700085019601A701B801C901DA01EB01076307
:100080004236B79BD8A71A39685618AEBAAB558C0A
:100090001D3CB7CC5763BD6DEDFD753EF617723153
:1000A000BF000000803F08000000BE922449123EBD
:1000B000ABAAAA2ABECDCCCC4C3E00000080BEAB81
:1000C000AAAAAA3E00000000BF000000803F000076
:1000D000000000084178D3BB4387D1133D190E3C83
:1000E000C3BD4282AD2B3E68EC8276BED98FE1A9BA
:1000F0003E4C80EFFFBE01C4FF7F3F0000000000C8
:100100006E616E00696E660000407A10F35A00A0BE
:10011000724E18090010A5D4E80000E876481700D0
:1001200000E40B54020000CA9A3B000000E1F50510
:10013000000080969800000040420F000000A0865A
:1001400001000000102700000000E803000000008C
:100150006400000000000A00000000000100000030
:1001600000002C76D888DC674F0823DFC1DFAE594A
:10017000E1B1B796E5E3E453C63AE651997696E8DD
:10018000E6C28426EB898C9B62ED407C6FFCEFBC61
:100190009C9F40F2BAA56FA5F490055A2AF75C938C
:1001A0006B6CF9676DC11BFCE0E40D47FEF520E6C2
:1001B000B500D0ED902E0300943577050080841EA5
:1001C000080000204E0A000000C80C333333330F00
:1001D000986E12831141EF8D2114893BE65516CF9D
:1001E000FEE6DB18D1844B381BF77C1D901DA4BBA9
:1001F000E424203284725E228100C9F124ECA1E55E
:100200003D2711241FBECFEFD8E0DEBFCDBF11E0E8
:10021000A0E0B1E0EAEAFDE102C005900D92A6314E
:10022000B107D9F70E9404050C94D30E0C9400007A
:10023000CF92DF92FF920F931F93CF93DF936C01C6
:1002400001E010E00F2EFAEAFF2EF02D04C0F39427
:10025000F3940F5F1F4FE80121978EEE0E94BD04BB
:100260008F2D0E94E5040E94DB048FEE0E94BD04E6
:10027000CB30D10508F0C8C0FE01EC5CFF4F0C94F8
:10028000CA0C81E00E94F504C82F80E00E94F504AA
:100290002C2F30E0322F2227280F311DF601318319
:1002A0002083BFC081E00E94F504C82F80E00E9437
:1002B000F5042C2F30E0322F2227280F311DF601B4
:1002C00033832283AEC081E00E94F504C82F80E012
:1002D0000E94F5042C2F30E0322F2227280F311DE9
:1002E000F601358324839DC081E00E94F504C82F68
:1002F00080E00E94F5042C2F30E0322F2227280FB7
:10030000311DF601378326838CC081E00E94F504FD
:10031000C82F80E00E94F5042C2F30E0322F2227D6
:10032000280F311DF601318720877BC081E00E94B4
:10033000F504C82F80E00E94F5042C2F30E0322F06
:100340002227280F311DF601338722876AC081E0FA
:100350000E94F504C82F80E00E94F5042C2F30E0A5
:10036000322F2227280F311DF6013587248759C0E7
:1003700081E00E94F504C82F80E00E94F5042C2F34
:1003800030E0322F2227280F311DF60137872687CC
:1003900048C081E00E94F504C82F80E00E94F50467
:1003A0002C2F30E0322F2227280F311DF601318B00
:1003B000208B37C081E00E94F504C82F80E00E94A6
:1003C000F5042C2F30E0322F2227280F311DF601A3
:1003D000338B228B26C081E00E94F504C82F80E079
:1003E0000E94F5042C2F30E0322F2227280F311DD8
:1003F000F601358B248B0E94DB0483ED90E301979B
:10040000F1F700C0000016C00E94DB04E3EDF0E34A
:100410003197F1F700C000000B3011050CF417CF35
:1004200009C00E94DB04E3EDF0E33197F1F700C06F
:1004300000000DCFFFE52AEE80E0F1502040804023
:10044000E1F700C0000088E1DF91CF911F910F918B
:10045000FF90DF90CF9008954F925F926F927F92BE
:100460008F929F92AF92BF92CF92DF92EF92FF92C4
:10047000CF93DF93CDB7DEB762970FB6F894DEBFA8
:100480000FBECDBF9A8B898B8EEE0E94BD0484EF88
:100490000E94E5048EE20E94E5040E94DB0487EAE4
:1004A00091E60197F1F700C000008EEE0E94BD04B6
:1004B00086EF0E94E5040E94DB048FEE0E94BD04DB
:1004C00081E00E94F504F82E80E00E94F504E82EF9
:1004D0000E94DB048EEE0E94BD0484EF0E94E504BE
:1004E00084E30E94E5040E94DB04A7EAB1E61197C9
:1004F000F1F700C000008EEE0E94BD0486EF0E945E
:10050000E5040E94DB048FEE0E94BD0481E00E949E
:10051000F504882E912CA12CB12CBA2CA92C982C46
:10052000882481E00E94F504880E911CA11CB11C56
:10053000BA2CA92C982C882480E00E94F504880EFF
:10054000911CA11CB11C0E94DB042F2D30E0322F26
:1005500022272E0D311DA901330F660B770BE98978
:10056000FA89828593859A01AB01281B390B4109D1
:100570005109A085B1850E94D00C0E949D0620E003
:1005800030E040E058E30E9429070E9465066B01B5
:100590007C01A989BA8952966D917C915397072E57
:1005A000000C880B990B0E949D0620E030E040E093
:1005B00055E40E9429072B013C01E989FA896489E5
:1005C0007589CB01770FAA0BBB0BBC01CD016C0D5C
:1005D0007D1D8E1D9F1D0E949D069B01AC01C301C8
:1005E000B2010E94F3050E946506C60ED71EE81EE2
:1005F000F91EC701B6010E949D0620E030E040E0F0
:1006000051E40E94870520E030E040E85DE30E946D
:10061000290720E030E040E251E40E94F3056983BD
:100620007A838B839C8326E636E646EE5FE30E9460
:10063000290720E030E040E052E40E948705698706
:100640007A878B879C8726013701F0EA4F1AFFE0F3
:100650005F0A61087108A3019201C301B2010E94FF
:10066000980C0E949D0620E030E040E859E30E948B
:1006700029076D837E838F839887E989FA89A4810E
:10068000B581A30192010E94DB0C0E949D0620E02F
:1006900030E040E059E30E9429070E9465066B01A3
:1006A0007C01A989BA891C966D917C911D97072EB2
:1006B000000C880B990B0E949D062D813E814F8175
:1006C00058850E94290720E030E040E857E30E9467
:1006D00029070E946506DC01CB018C0D9D1DAE1D16
:1006E000BF1DBC01CD016E5F7F4F8F4F9F4F0E949A
:1006F0009D0620E030E040E85EE30E9429070E946A
:1007000065069B01AC0130584F4F5F4FE989FA896C
:10071000A681B7810E94D00C0E949B0620E030E0A9
:1007200040E058E30E9429070E946C066D877E878F
:100730008F87988BFF24B7FCFA94EB2CDA2CC92C0A
:10074000A989BA891E966D917C911F97072E000C7E
:10075000880B990B0E949D062D813E814F81588503
:100760000E94290720E030E040E05AE30E94290778
:100770000E9465064B015C01E989FA89A281B38177
:10078000A30192010E94DB0C0E949D0620E030E054
:1007900040E05AE30E9429070E946506860E971ED4
:1007A000A81EB91EA989BA898D919C91880F991F9D
:1007B000880F991F092E000CAA0BBB0B880E991EDF
:1007C000AA1EBB1EB2E08B0E911CA11CB11CD50150
:1007D000C401BB201CF40396A11DB11DB595A795BE
:1007E00097958795B595A79597958795A7019601B4
:1007F000281B390B4A0B5B0BA0E5B3EC0E94D00C15
:1008000099236CF0660F771F881F991F2D853E85F1
:100810004F8558890E94A80C69017A010CC02D856A
:100820003E854F8558890E94A80C69017A01CC0C3D
:10083000DD1CEE1CFF1CC701B6010E949D064B018A
:100840005C0120E030E040E85BE30E9429079B0167
:10085000AC010E9429070E9465069B01AC01AEED28
:10086000BBE00E94D00C0E949D0620E030E040E8F2
:1008700057E30E9429072B013C01A3E4B3EEA70133
:1008800096010E94DE0C0E949D0620E030E040E8C8
:1008900057E30E9429070E9465066B017C01C30192
:1008A000B2010E946506DC01CB018C0D9D1DAE1DC1
:1008B000BF1DBC01CD016153714F8F4F9F4F0E94EF
:1008C0009D0620E030E040E85DE30E942907A50195
:1008D00094010E9487050E9465066B017C010E94BD
:1008E0009D0620E030E54DE754E40E94F30521E049
:1008F0003EED42E45EE30E9496079B01AC018981D4
:100900009A81AB81BC81E989FA89868B978BA08F0C
:10091000B18F89859A85AB85BC85828F938FA48F93
:10092000B58FC68ED78EE0A2F1A260E070E080E8BD
:100930009FE30E94860520E03AE24DE257E40E94E0
:100940002907E989FA8962A373A384A395A389E19E
:1009500062960FB6F894DEBF0FBECDBFDF91CF9188
:10096000FF90EF90DF90CF90BF90AF909F908F90CF
:100970007F906F905F904F90089594EA9093BC00A1
:10098000ECEBF0E090819923ECF79091B90090FDA9
:1009900010C08093BB0084E88093BC00ECEBF0E0D7
:1009A00080818823ECF7E9EBF0E08081808189E1A8
:1009B00008958AE2089584E98093BC00ECEBF0E0AE
:1009C000808184FDFDCF8AE108958093BB0084E897
:1009D0008093BC00ECEBF0E080818823ECF7E9EB3E
:1009E000F0E0808180818BE1089520E4829FC00146
:1009F000112484688093BC00ECEBF0E080818823B4
:100A0000ECF78091BB000895CF93DF93CDB7DEB7AD
:100A1000EA970FB6F894DEBF0FBECDBF0E9458050F
:100A2000CE0101960E9418010F2EF0E0CF2EF1E0CA
:100A3000DF2EF02D8E01095D1F4F0F2EFAE0EF2EF5
:100A4000F1E0FF2EF02D2FEF83ED90E32150804059
:100A50009040E1F700C00000CE0101960E942C02F8
:100A60008A8D8F93898D8F93888D8F938F898F93A4
:100A7000DF92CF921F930F930E94530EC8010E94E2
:100A800068058AA18F9389A18F9388A18F938F8DF9
:100A90008F93FF92EF921F930F930E94530EC80102
:100AA0000E9468050FB6F894DEBF0FBECDBFCBCF56
:100AB0001092C50087E68093C400E2ECF0E08081EC
:100AC00086608083E1ECF0E080818869808308950E
:100AD000CF93DF93FC012081222369F0DC01119682
:100AE000E0ECF0E0C6ECD0E0908195FFFDCF2883EC
:100AF0002D912111F9CFE0ECF0E0808185FFFDCF51
:100B00001092C6008BE2DF91CF9108955058BB2719
:100B1000AA270E949E050C94EF060E94E10638F079
:100B20000E94E80620F039F49F3F19F426F40C9453
:100B3000DE060EF4E095E7FB0C94D806E92F0E9440
:100B4000000758F3BA17620773078407950720F068
:100B500079F4A6F50C9422070EF4E0950B2EBA2F2B
:100B6000A02D0B01B90190010C01CA01A0011124B3
:100B7000FF27591B99F0593F50F4503E68F11A165F
:100B8000F040A22F232F342F4427585FF3CF4695F0
:100B900037952795A795F0405395C9F77EF41F1612
:100BA000BA0B620B730B840BBAF09150A1F0FF0FDC
:100BB000BB1F661F771F881FC2F70EC0BA0F621FC8
:100BC000731F841F48F4879577956795B795F795B8
:100BD0009E3F08F0B0CF9395880F08F09927EE0F4D
:100BE0009795879508950E9407060C94EF060E943A
:100BF000E80658F00E94E10640F029F45F3F29F032
:100C00000C94D80651110C9423070C94DE060E9414
:100C1000000768F39923B1F3552391F3951B550B06
:100C2000BB27AA2762177307840738F09F5F5F4FBF
:100C3000220F331F441FAA1FA9F335D00E2E3AF0FE
:100C4000E0E832D091505040E695001CCAF72BD016
:100C5000FE2F29D0660F771F881FBB1F2617370767
:100C60004807AB07B0E809F0BB0B802DBF01FF2799
:100C700093585F4F3AF09E3F510578F00C94D80698
:100C80000C9423075F3FE4F3983ED4F38695779561
:100C90006795B795F7959F5FC9F7880F911D969552
:100CA000879597F90895E1E0660F771F881FBB1FAE
:100CB000621773078407BA0720F0621B730B840B5B
:100CC000BA0BEE1F88F7E09508950E946C066894B1
:100CD000B1110C94230708950E94080788F09F57CC
:100CE00098F0B92F9927B751B0F0E1F0660F771F50
:100CF000881F991F1AF0BA95C9F714C0B13091F046
:100D00000E942207B1E008950C942207672F782FE4
:100D10008827B85F39F0B93FCCF38695779567950A
:100D2000B395D9F73EF490958095709561957F4F76
:100D30008F4F9F4F0895E89409C097FB3EF490951C
:100D40008095709561957F4F8F4F9F4F9923A9F0A4
:100D5000F92F96E9BB279395F69587957795679533
:100D6000B795F111F8CFFAF4BB0F11F460FF1BC077
:100D70006F5F7F4F8F4F9F4F16C0882311F096E90A
:100D800011C0772321F09EE8872F762F05C06623B8
:100D900071F096E8862F70E060E02AF09A95660F71
:100DA000771F881FDAF7880F9695879597F908952A
:100DB00097F99F6780E870E060E008959FEF80EC0E
:100DC000089500240A9416161706180609060895B1
:100DD00000240A9412161306140605060895092E17
:100DE0000394000C11F4882352F0BB0F40F4BF2B86
:100DF00011F460FF04C06F5F7F4F8F4F9F4F0895C6
:100E000057FD9058440F551F59F05F3F71F04795BB
:100E1000880F97FB991F61F09F3F79F087950895A0
:100E2000121613061406551FF2CF4695F1DF08C0BF
:100E3000161617061806991FF1CF869571056105DC
:100E400008940895E894BB2766277727CB0197F984
:100E500008950E943C070C94EF060E94E10638F0CA
:100E60000E94E80620F0952311F00C94D8060C940B
:100E7000DE0611240C9423070E94000770F3959F4F
:100E8000C1F3950F50E0551F629FF001729FBB2781
:100E9000F00DB11D639FAA27F00DB11DAA1F649F1D
:100EA0006627B00DA11D661F829F2227B00DA11DD0
:100EB000621F739FB00DA11D621F839FA00D611D56
:100EC000221F749F3327A00D611D231F849F600D77
:100ED000211D822F762F6A2F11249F5750409AF0A0
:100EE000F1F088234AF0EE0FFF1FBB1F661F771F2C
:100EF000881F91505040A9F79E3F510580F00C94F7
:100F0000D8060C9423075F3FE4F3983ED4F386950C
:100F100077956795B795F795E7959F5FC1F7FE2B96
:100F2000880F911D9695879597F90895FA01EE0F10
:100F3000FF1F309621053105A1F16115710561F49E
:100F40008038BFE39B0749F168949038810561F0D0
:100F50008038BFEF9B0741F099234AF5FF3FE10539
:100F60003105210519F1E8940894E795D901AA23E0
:100F700029F4AB2FBE2FF85FD0F310C0FF5F70F4E1
:100F8000A695E0F7F73950F019F0FF3A38F49F775B
:100F90009F930DD00F9007FC9058089546F00C9445
:100FA000DE0660E070E080E89FE308954FE79F77FA
:100FB0005F934F933F932F930E9491082F913F91FE
:100FC0004F915F910E9429070C94EE0729F416F0C7
:100FD0000C94D8060C9422070C94DE060E94080795
:100FE000A8F39638A0F707F80F92E8942BE33AEAB3
:100FF00048EB5FE70E943F070F920F920F924DB7A9
:101000005EB70F920E94D908EEE7F0E00E94200838
:101010004F915F91EF91FF91E595EE1FFF1F49F012
:10102000FE57E0684427EE0F441FFA95E1F741951B
:10103000550B0E9453080F9007FE0C944708089523
:10104000DF93CF931F930F93FF92EF92DF927B0179
:101050008C01689406C0DA2EEF010E943C07FE0165
:10106000E894A5912591359145915591A6F3EF010D
:101070000E949E05FE019701A801DA9469F7DF90AE
:10108000EF90FF900F911F91CF91DF9108959B01F9
:10109000AC0160E070E080E89FE30C94F3050C94F1
:1010A000D8060C940D090E940807D8F39923C9F3B8
:1010B000940F511DA3F39150504094F059F08823A0
:1010C00032F0660F771F881F91505040C1F79E3F46
:1010D00051052CF7880F911D9695879597F90895DE
:1010E0005F3FACF0983E9CF0BB278695779567955F
:1010F000B79508F4B1609395C1F7BB0F58F711F499
:1011000060FFE8CF6F5F7F4F8F4F9F4FE3CF0C940F
:10111000230716F00C940D090C94DE0668940C94C9
:10112000D8060E940807A8F39923C1F3AEF3DF9312
:10113000CF931F930F93FF92C92FDD2788232AF0A7
:101140002197660F771F881FDAF720E030E040E82C
:101150005FEB9FE3883920F0803E38F021968F774F
:101160000E948705E6EAF0E004C00E948705E3EDEF
:10117000F0E00E9420088B01BE01EC01FB2E6F57AE
:1011800071097595771F880B990B0E949D0628E1C0
:1011900032E741E35FE30E943C07AF2D9801AE01C7
:1011A000FF900F911F91CF91DF910E949E050C94AB
:1011B000EF06FA01DC01AA0FBB1F9B01AC01BF5770
:1011C00028F4222733274427507820C0B75190F4C1
:1011D000AB2F0024469537952795011CA395D2F394
:1011E000002071F0220F331F441FB395DAF30ED0A5
:1011F0000C94860561307105A0E88A07B94630F481
:101200009B01AC016627772788279078309621F0DC
:10121000208331834283538308959F3F31F091505F
:1012200020F4879577956795B795880F911D9695CA
:10123000879597F90895A0E1B0E0E1E2F9E00C9418
:10124000E30C7C011B016A01FC0117821682838179
:1012500081FF44C39E012F5F3F4F3901F701938106
:10126000F10193FD859193FF81911F01882309F47A
:1012700031C3853239F493FD859193FF81911F012C
:10128000853239F4B70190E00E94170E56016501CE
:10129000E5CF10E0512C912CFFE1F915D8F08B32FD
:1012A00079F038F4803279F08332A1F4F92DF061CD
:1012B0002EC08D3261F0803369F4292D21602DC05C
:1012C000392D3260932E892D8460982E2AC0E92D05
:1012D000E86015C097FC2DC020ED280F2A3088F457
:1012E00096FE06C03AE0139F200D1124122F19C05C
:1012F0008AE0589E200D1124522EE92DE0629E2E88
:1013000010C08E3231F496FCE5C2F92DF0649F2EA8
:1013100008C08C3621F4292D2068922E02C0883610
:1013200041F4F10193FD859193FF81911F0181119A
:10133000B3CF9BEB980F933020F4992D9061805E92
:1013400007C09BE9980F933008F066C1992D9F7EE6
:1013500096FF16E09F73992E853619F49064992EA6
:1013600008C0863621F4392F3068932E02C011113F
:10137000115097FE07C01C3350F444244394410E8F
:1013800027E00BC0183038F027E017E005C027E051
:101390009CE3492E02C0212F412C560184E0A80E67
:1013A000B11CF6016081718182819381042DA301BA
:1013B0000E94290D6C01F981FC87F0FF02C0F3FF48
:1013C00006C091FC06C092FE06C000E205C00DE218
:1013D00003C00BE201C000E08C858C7019F0011194
:1013E0005AC29BC297FE10C04C0CFC85F4FF04C08F
:1013F0008A81813309F44A94141474F528E0241581
:1014000078F588E0482E2CC096FC2AC0812F90E009
:101410008C159D059CF03CEFC3163FEFD30674F08E
:10142000892D8068982E0AC0E2E0F0E0EC0FFD1FE5
:10143000E10FF11D8081803319F411501111F4CFA7
:1014400097FE0EC044244394410E812F90E0C816AD
:10145000D9062CF41C1904C04424439401C010E0A4
:1014600097FE06C01C141D0434F4C601019605C085
:1014700085E090E002C081E090E001110196112327
:1014800031F0212F30E02F5F3F4F820F931F252D2A
:1014900030E08217930714F4581A01C0512C892D9B
:1014A000897049F4552039F0B70180E290E00E943C
:1014B000170E5A94F7CF002329F0B701802F90E040
:1014C0000E94170E93FC09C0552039F0B70180E344
:1014D00090E00E94170E5A94F7CF97FE4CC0460139
:1014E000D7FE02C0812C912CC60188199909F301FD
:1014F000E80FF91FFE87ED87960124193109388B13
:101500002F87012F10E01195019511093FEF8316E8
:10151000930629F4B7018EE290E00E94170EC814DA
:10152000D9044CF08F8598898815990524F4ED85A8
:10153000FE85818101C080E3F1E08F1A91082D853D
:101540003E852F5F3F4F3E872D87801691062CF0FA
:10155000B70190E00E94170ED9CFC814D90441F406
:101560009A81963320F4953319F43C8534FF81E356
:10157000B70190E04EC08A81813319F09C859F7E2F
:101580009C87B70190E00E94170E111105C094FCD2
:1015900018C085E690E017C0B7018EE290E00E9487
:1015A000170E1E5F82E001E0080FF301E80FF11D46
:1015B0008081B70190E00E94170E802F0113F3CFB6
:1015C000E6CF85E490E0B7010E94170ED7FC06C075
:1015D000C114D10441F4EC85E4FF05C0D194C19459
:1015E000D1088DE201C08BE2B70190E00E94170E96
:1015F00080E32AE0C216D1042CF08F5FFAE0CF1A04
:10160000D108F7CFB70190E00E94170EB701C601CD
:10161000C0960E94170E54C1833631F0833779F09B
:10162000833509F056C020C0560132E0A30EB11C2C
:10163000F6018081898301E010E0630112C0560148
:10164000F2E0AF0EB11CF601C080D18096FE03C05F
:10165000612F70E002C06FEF7FEFC6010E940C0E99
:101660008C01F92DFF7714C0560122E0A20EB11CA7
:10167000F601C080D18096FE03C0612F70E002C0E9
:101680006FEF7FEFC6010E94010E8C01F92DF0680B
:101690009F2EF3FD1AC0852D90E008171907A8F4B6
:1016A000B70180E290E00E94170E5A94F4CFF60141
:1016B00097FC859197FE81916F01B70190E00E94A0
:1016C000170E51105A94015011090115110579F79F
:1016D000F7C0843611F0893661F5560197FE09C0CE
:1016E00024E0A20EB11CF601608171818281938198
:1016F0000AC0F2E0AF0EB11CF60160817181072EC5
:10170000000C880B990BF92DFF769F2E97FF09C0CF
:1017100090958095709561957F4F8F4F9F4FF068A2
:101720009F2E2AE030E0A3010E94750EC82EC61835
:101730003FC0092D853721F40F7E2AE030E01DC01F
:10174000097F8F3691F018F4883559F0C3C080377F
:1017500019F0883711F0BEC0006104FF09C00460B1
:1017600007C094FE08C0066006C028E030E005C04F
:1017700020E130E002C020E132E0560107FF09C05D
:1017800084E0A80EB11CF601608171818281938191
:1017900008C0F2E0AF0EB11CF6016081718180E0FB
:1017A00090E0A3010E94750EC82EC6180F77902EE8
:1017B00096FE0BC0092D0E7FC11650F494FE0AC090
:1017C00092FC08C0092D0E7E05C0DC2C092D03C03B
:1017D000DC2C01C0D12E04FF0DC0FE01EC0DF11D6B
:1017E0008081803311F4097E09C002FF06C0D394C2
:1017F000D39404C0802F867809F0D39403FD11C0E0
:1018000000FF06C01C2DD51480F4150D1D190DC048
:10181000D51458F4B70180E290E00E94170ED394DB
:10182000F7CFD51410F45D1801C0512C04FF10C07F
:10183000B70180E390E00E94170E02FF17C001FD80
:1018400003C088E790E002C088E590E0B7010CC0D3
:10185000802F867859F001FF02C08BE201C080E240
:1018600007FD8DE2B70190E00E94170EC11638F413
:10187000B70180E390E00E94170E1150F7CFCA9491
:10188000F301EC0DF11D8081B70190E00E94170E6D
:10189000C110F5CF15C0F4E0F51560F584E0581AD5
:1018A00093FE1FC0011127C02C8523FF2AC000E032
:1018B00011E0392D3071932EF8018491811124C0EB
:1018C000552009F4E4CCB70180E290E00E94170EA5
:1018D0005A94F6CFF7018681978126C08FEF9FEF4C
:1018E00023C0B70180E290E00E94170E5A94511075
:1018F000F8CFD8CF512CB701802F90E00E94170E5F
:10190000D3CF04E011E0D5CF91108052B70190E021
:101910000E94170E0F5F1F4FCFCF23E0251510F445
:1019200083E0BDCF512CC0CF6096E2E10C94FF0C58
:10193000DB018F939F930E94D00CBF91AF91A29F28
:10194000800D911DA39F900DB29F900D11240895BD
:10195000A1E21A2EAA1BBB1BFD010DC0AA1FBB1FB3
:10196000EE1FFF1FA217B307E407F50720F0A21B25
:10197000B30BE40BF50B661F771F881F991F1A9492
:1019800069F760957095809590959B01AC01BD01BC
:10199000CF010895EE0FFF1F0590F491E02D0994FB
:1019A0000E941A0DA59F900DB49F900DA49F800DCD
:1019B000911D11240895B7FF0C94D00C0E94D00CF7
:1019C000821B930B08952F923F924F925F926F92DA
:1019D0007F928F929F92AF92BF92CF92DF92EF92BF
:1019E000FF920F931F93CF93DF93CDB7DEB7CA1B40
:1019F000DB0B0FB6F894DEBF0FBECDBF09942A886B
:101A0000398848885F846E847D848C849B84AA8412
:101A1000B984C884DF80EE80FD800C811B81AA819F
:101A2000B981CE0FD11D0FB6F894DEBF0FBECDBF6A
:101A3000ED010895A29FB001B39FC001A39F700D57
:101A4000811D1124911DB29F700D811D1124911DC6
:101A50000895283008F027E03327DA01990F311D67
:101A600087FD916000966105710539F432602E5F43
:101A70003D9330E32A95E1F708959F3F30F0803899
:101A80007105610509F03C5F3C5F3D93913008F0C2
:101A90008068911DDF93CF931F930F93FF92EF9276
:101AA000192F987F9695E92F96959695E90FFF2720
:101AB000EE59FE4F99273327EE24FF24A701E701B3
:101AC00005900894079428F4360FE71EF81E491F66
:101AD000511D660F771F881F991F0694A1F7059067
:101AE000079428F4E70EF81E491F561FC11D770FF3
:101AF000881F991F661F0694A1F70590079428F484
:101B0000F80E491F561FC71FD11D880F991F661F4A
:101B1000771F0694A1F70590079420F4490F561FEC
:101B2000C71FD81F990F661F771F881F0694A9F734
:101B300084911095177041F0D695C79557954795A4
:101B4000F794E7941A95C1F7E8E0F1E068941590EE
:101B5000159135916591959105907FE27395E11806
:101B6000F10A430B560BC90BD009C0F7E10CF11E6B
:101B7000431F561FC91FD01D7EF4703311F48A9580
:101B8000E6CFE894015030F0080F0AF4002702175E
:101B900008F4202F2395022F7A3328F079E37D93E0
:101BA0002A95E9F710C07D932A9589F606949795B2
:101BB0006795379517951794E118F10A430B560B63
:101BC000C90BD00998F023957E9173957A3308F06C
:101BD00070E37C932013B8F77E9170617D9330F0B1
:101BE000839571E37D9370E32A95E1F71124EF90DB
:101BF000FF900F911F91CF91DF91992787FD9095CD
:101C00000895FC010590615070400110D8F780954F
:101C100090958E0F9F1F0895FC01615070400190B8
:101C20000110D8F7809590958E0F9F1F08950F9300
:101C30001F93CF93DF93FB01238121FD03C08FEF1F
:101C40009FEF2CC022FF16C0468157812481358129
:101C50004217530744F4A081B1819D012F5F3F4F8C
:101C6000318320838C93268137812F5F3F4F3783C9
:101C7000268314C08B01EC01FB010084F185E02D6B
:101C80000995892BE1F6D80116968D919C911797AD
:101C9000019617969C938E931697CE01DF91CF9164
:101CA0001F910F910895AEE0B0E0E9E5FEE00C94DD
:101CB000F10C0D891E8986E08C831A8309838FEFCE
:101CC0009FE79E838D83AE01475E5F4F6F89788D5E
:101CD000CE0101960E941B09EF81F885E00FF11FEC
:101CE00010822E96E4E00C940D0DFA01AA272830FC
:101CF00051F1203181F1E8946F936E7F6E5F7F4FD9
:101D00008F4F9F4FAF4FB1E03ED0B4E03CD0670F54
:101D1000781F891F9A1FA11D680F791F8A1F911DA7
:101D2000A11D6A0F711D811D911DA11D20D009F4F7
:101D300068943F912AE0269F11243019305D319339
:101D4000DEF6CF010895462F4770405D4193B3E022
:101D50000FD0C9F7F6CF462F4F70405D4A3318F0C9
:101D6000495D31FD4052419302D0A9F7EACFB4E07A
:101D7000A6959795879577956795BA95C9F7009732
:101D80006105710508959B01AC010A2E06945795D3
:101D9000479537952795BA95C9F7620F731F841F2A
:0A1DA000951FA01D0895F894FFCFD1
:101DAA0054203D202566430A0D0050203D20256C15
:061DBA007550610A0D00E6
:00000001FF
